:020000040800F2
:10000000000001205D1A0008791500087D15000820
:1000100081150008851500088915000800000000FA
:100020000000000000000000000000008D15000826
:1000300091150008000000009515000899150008AA
:10004000A51A0008A51A0008A51A0008A51A000894
:10005000A51A0008A51A0008A51A0008A51A000884
:10006000A51A0008A51A0008A51A0008A51A000874
:10007000A51A0008A51A0008A51A0008A51A000864
:10008000A51A0008A51A0008A51A0008A51A000854
:10009000A51A0008A51A0008A51A0008A51A000844
:1000A000A51A0008A51A0008A51A0008A51A000834
:1000B000A51A0008A51A0008A51A0008A51A000824
:1000C000A51A0008A51A0008A51A0008A51A000814
:1000D000A51A0008A51A0008A51A0008A51A000804
:1000E000A51A0008A51A0008A51A0008A51A0008F4
:1000F000A51A0008A51A0008A51A0008A51A0008E4
:10010000A51A0008A51A00089D150008A51A0008E0
:10011000A51A0008A51A0008A51A0008A51A0008C3
:10012000A51A0008A51A0008A51A0008A51A0008B3
:1001300000000000000000000000000000000000BF
:1001400000000000000000000000000000000000AF
:10015000000000000000000000000000000000009F
:10016000000000000000000000000000000000008F
:10017000000000000000000000000000000000007F
:10018000000000000000000000000000000000006F
:10019000000000000000000000000000000000005F
:1001A000000000000000000000000000000000004F
:1001B000000000000000000000000000000000003F
:1001C000000000000000000000000000000000002F
:1001D000000000000000000000000000000000001F
:0401E0005FF8E0F1F3
:1001E80010B5054C237833B9044B13B10448AFF369
:1001F80000800123237010BDE006002000000000ED
:100208004C8A000808B5034B1BB103490348AFF3F8
:10021800008008BD00000000E40600204C8A0008A9
:100228004FF0FF0C1CEAD0521EBF1CEAD15392EAD1
:100238000C0F93EA0C0F6FD01A4480EA010C4002AD
:1002480018BF5FEA41211ED04FF0006343EA501007
:1002580043EA5111A0FB01310CF00040B1F5000F49
:100268003EBF490041EAD3715B0040EA010062F1F8
:100278007F02FD2A1DD8B3F1004F40EBC25008BFE2
:1002880020F00100704790F0000F0CF0004C08BF00
:1002980049024CEA502040EA51207F3AC2BFD2F1CD
:1002A800FF0340EAC250704740F400004FF00003DB
:1002B800013A5DDC12F1190FDCBF00F00040704715
:1002C800C2F10002410021FA02F1C2F1200200FA53
:1002D80002FC5FEA310040F1000053EA4C0308BF1A
:1002E80020EADC70704792F0000F00F0004C02BF6B
:1002F800400010F4000F013AF9D040EA0C0093F0E6
:10030800000F01F0004C02BF490011F4000F013B3F
:10031800F9D041EA0C018FE70CEAD15392EA0C0FAD
:1003280018BF93EA0C0F0AD030F0004C18BF31F018
:10033800004CD8D180EA010000F00040704790F0EE
:10034800000F17BF90F0004F084691F0000F91F092
:10035800004F14D092EA0C0F01D142020FD193EA58
:100368000C0F03D14B0218BF084608D180EA0100E0
:1003780000F0004040F0FE4040F40000704740F0BC
:10038800FE4040F44000704781F0004102E000BFA9
:1003980083F0004330B54FEA41044FEA430594EA3D
:1003A800050F08BF90EA020F1FBF54EA000C55EA78
:1003B800020C7FEA645C7FEA655C00F0E2804FEA49
:1003C8005454D4EB5555B8BF6D420CDD2C4480EA2B
:1003D800020281EA030382EA000083EA010180EA5B
:1003E800020281EA0303362D88BF30BD11F0004FA9
:1003F8004FEA01314FF4801C4CEA113102D04042DF
:1004080061EB410113F0004F4FEA03334CEA133319
:1004180002D0524263EB430394EA050F00F0A78031
:10042800A4F10104D5F1200E0DDB02FA0EFC22FA2C
:1004380005F2801841F1000103FA0EF2801843FA20
:1004480005F359410EE0A5F120050EF1200E012A11
:1004580003FA0EFC28BF4CF0020C43FA05F3C0184F
:1004680051EBE37101F0004507D54FF0000EDCF1C8
:10047800000C7EEB00006EEB0101B1F5801F1BD371
:10048800B1F5001F0CD349085FEA30004FEA3C0C75
:1004980004F101044FEA445212F5800F80F09A806B
:1004A800BCF1004F08BF5FEA500C50F1000041EB6F
:1004B800045141EA050130BD5FEA4C0C404141EB73
:1004C8000101013C28BFB1F5801FE9D291F0000F6E
:1004D80004BF01460020B1FA81F308BF2033A3F11D
:1004E8000B03B3F120020CDA0C3208DD02F1140C14
:1004F800C2F10C0201FA0CF021FA02F10CE002F14F
:100508001402D8BFC2F1200C01FA02F120FA0CFC47
:10051800DCBF41EA0C019040E41AA2BF01EB045190
:10052800294330BD6FEA04041F3C1CDA0C340EDC8E
:1005380004F11404C4F1200220FA04F001FA02F3D1
:1005480040EA030021FA04F345EA030130BDC4F18F
:100558000C04C4F1200220FA02F001FA04F340EA84
:100568000300294630BD21FA04F0294630BD94F035
:10057800000F83F4801306BF81F480110134013D1C
:100588004EE77FEA645C18BF7FEA655C29D094EA8D
:10059800050F08BF90EA020F05D054EA000C04BF0B
:1005A8001946104630BD91EA030F1EBF00210020F6
:1005B80030BD5FEA545C05D14000494128BF41F095
:1005C800004130BD14F580043CBF01F5801130BDF9
:1005D80001F0004545F0FE4141F470014FF0000084
:1005E80030BD7FEA645C1ABF194610467FEA655C35
:1005F8001CBF0B46024650EA013406BF52EA0335D7
:1006080091EA030F41F4002130BD00BF90F0000FC4
:1006180004BF0021704730B54FF4806404F1320400
:100628004FF000054FF0000150E700BF90F0000FB9
:1006380004BF0021704730B54FF4806404F13204E0
:1006480010F0004548BF40424FF000013EE700BFB0
:1006580042004FEAE2014FEA31014FEA02701FBF40
:1006680012F07F4393F07F4F81F06051704732F072
:100678007F4208BF704793F07F4F04BF41F40021C9
:10068800704730B54FF4607401F0004521F0004127
:100698001CE700BF50EA010208BF704730B54FF0B1
:1006A80000050AE050EA010208BF704730B511F0B2
:1006B800004502D5404261EB41014FF4806404F1EA
:1006C80032045FEA915C3FF4D8AE4FF003025FEA70
:1006D800DC0C18BF03325FEADC0C18BF033202EBF4
:1006E800DC02C2F1200300FA03FC20FA02F001FA4E
:1006F80003FE40EA0E0021FA02F11444BDE600BFF1
:1007080080F0004002E000BF81F0004142001FBFBE
:100718005FEA410392EA030F7FEA226C7FEA236CC7
:100728006AD04FEA1262D2EB1363C1BFD2184140BC
:1007380048404140B8BF5B42192B88BF704710F052
:10074800004F40F4000020F07F4018BF404211F0F5
:10075800004F41F4000121F07F4118BF494292EA5D
:10076800030F3FD0A2F1010241FA03FC10EB0C0089
:10077800C3F1200301FA03F100F0004302D5494216
:1007880060EB4000B0F5000F13D3B0F1807F06D3C3
:1007980040084FEA310102F10102FE2A51D2B1F1BB
:1007A800004F40EBC25008BF20F0010040EA0300B0
:1007B8007047490040EB0000013A28BFB0F5000F30
:1007C800EDD2B0FA80FCACF1080CB2EB0C0200FAE6
:1007D8000CF0AABF00EBC25052421843BCBFD04035
:1007E8001843704792F0000F81F4000106BF80F4AF
:1007F80000000132013BB5E74FEA41037FEA226C72
:1008080018BF7FEA236C21D092EA030F04D092F03C
:10081800000F08BF0846704790EA010F1CBF002070
:10082800704712F07F4F04D1400028BF40F00040CD
:10083800704712F100723CBF00F50000704700F0ED
:10084800004343F0FE4040F4000070477FEA226214
:1008580016BF08467FEA23630146420206BF5FEAE5
:10086800412390EA010F40F4800070474FF00003E5
:1008780004E000BF10F0004348BF40425FEA000CAC
:1008880008BF704743F0964301464FF000001CE054
:1008980050EA010208BF70474FF000030AE000BFAA
:1008A80050EA010208BF704711F0004302D54042E8
:1008B80061EB41015FEA010C02BF8446014600205A
:1008C80043F0B64308BFA3F18053A3F50003BCFA75
:1008D8008CF2083AA3EBC25310DB01FA02FC634422
:1008E80000FA02FCC2F12002BCF1004F20FA02F229
:1008F80043EB020008BF20F00100704702F120021C
:1009080001FA02FCC2F1200250EA4C0021FA02F27C
:1009180043EB020008BF20EADC7070474FF0FF3C51
:1009280006E000BF4FF0010C02E000BF4FF0010CE1
:100938004DF804CD4FEA40024FEA41037FEA226CAA
:1009480018BF7FEA236C11D001B052EA530C18BFCC
:1009580090EA010F58BFB2EB030088BFC81738BF31
:100968006FEAE17018BF40F0010070477FEA226C1F
:1009780002D15FEA402C05D17FEA236CE4D15FEA1B
:10098800412CE1D05DF8040B704700BF844608464F
:100998006146FFE70FB5FFF7C9FF002848BF10F110
:1009A800000F0FBD4DF808EDFFF7F4FF0CBF012055
:1009B80000205DF808FB00BF4DF808EDFFF7EAFFDF
:1009C80034BF012000205DF808FB00BF4DF808ED9A
:1009D800FFF7E0FF94BF012000205DF808FB00BF8F
:1009E8004DF808EDFFF7D2FF94BF012000205DF815
:1009F80008FB00BF4DF808EDFFF7C8FF34BF012022
:100A080000205DF808FB00BF4FEA4002B2F1FE4F3C
:100A18000FD34FF09E03B3EB12620DD94FEA0023B8
:100A280043F0004310F0004F23FA02F018BF404291
:100A380070474FF00000704712F1610F01D1420278
:100A480005D110F0004008BF6FF0004070474FF02C
:100A580000007047034613F8012B002AFBD1181A2F
:100A68000138704770B54FF0FF0C4CF4E06C1CEA8D
:100A780011541DBF1CEA135594EA0C0F95EA0C0F8C
:100A880000F0DEF82C4481EA030621EA4C5123EAFF
:100A98004C5350EA013518BF52EA033541F480112E
:100AA80043F4801338D0A0FB02CE4FF00005E1FBE1
:100AB80002E506F00042E0FB03E54FF00006E1FB2B
:100AC80003569CF0000F18BF4EF0010EA4F1FF046E
:100AD800B6F5007F64F5407404D25FEA4E0E6D41AE
:100AE80046EB060642EAC62141EA55514FEAC520BF
:100AF80040EA5E504FEACE2EB4F1FD0C88BFBCF53B
:100B0800E06F1ED8BEF1004F08BF5FEA500E50F1EB
:100B1800000041EB045170BD06F0004646EA0101B1
:100B280040EA020081EA0301B4EB5C04C2BFD4EBE3
:100B38000C0541EA045170BD41F480114FF0000EDC
:100B4800013C00F3AB8014F1360FDEBF002001F04A
:100B5800004170BDC4F10004203C35DA0C341BDCC4
:100B680004F11404C4F1200500FA05F320FA04F096
:100B780001FA05F240EA020001F0004221F00041CA
:100B880010EBD37021FA04F642EB06015EEA430E3D
:100B980008BF20EAD37070BDC4F10C04C4F120056D
:100BA80000FA04F320FA05F001FA04F240EA020020
:100BB80001F0004110EBD37041F100015EEA430EF1
:100BC80008BF20EAD37070BDC4F1200500FA05F211
:100BD8004EEA020E20FA04F301FA05F243EA020390
:100BE80021FA04F001F0004121FA04F220EA02009F
:100BF80000EBD3705EEA430E08BF20EAD37070BDE5
:100C080094F0000F0FD101F00046400041EB0101C4
:100C180011F4801F08BF013CF7D041EA060195F0A6
:100C2800000F18BF704703F00046520043EB030360
:100C380013F4801F08BF013DF7D043EA060370474D
:100C480094EA0C0F0CEA135518BF95EA0C0F0CD058
:100C580050EA410618BF52EA4306D1D181EA03019E
:100C680001F000414FF0000070BD50EA410606BF98
:100C78001046194652EA430619D094EA0C0F02D1DD
:100C880050EA013613D195EA0C0F05D152EA033622
:100C98001CBF104619460AD181EA030101F0004140
:100CA80041F0FE4141F470014FF0000070BD41F089
:100CB800FE4141F4780170BD70B54FF0FF0C4CF463
:100CC800E06C1CEA11541DBF1CEA135594EA0C0F82
:100CD80095EA0C0F00F0A7F8A4EB050481EA030ECF
:100CE80052EA03354FEA013100F088804FEA0333B6
:100CF8004FF0805545EA131343EA12634FEA022284
:100D080045EA111545EA10654FEA00260EF0004144
:100D18009D4208BF964244F1FD0404F5407402D296
:100D28005B084FEA3202B61A65EB03055B084FEA27
:100D380032024FF480104FF4002CB6EB020E75EB24
:100D4800030E22BFB61A754640EA0C005B084FEA4C
:100D58003202B6EB020E75EB030E22BFB61A7546C9
:100D680040EA5C005B084FEA3202B6EB020E75EB14
:100D7800030E22BFB61A754640EA9C005B084FEA8C
:100D88003202B6EB020E75EB030E22BFB61A754699
:100D980040EADC0055EA060E18D04FEA051545EA88
:100DA80016754FEA06164FEAC30343EA52734FEA31
:100DB800C2025FEA1C1CC0D111F4801F0BD141EAAA
:100DC80000014FF000004FF0004CB6E711F4801F0F
:100DD80004BF01430020B4F1FD0C88BFBCF5E06FEF
:100DE8003FF6AFAEB5EB030C04BFB6EB020C5FEAFF
:100DF800500C50F1000041EB045170BD0EF0004E54
:100E08004EEA113114EB5C04C2BFD4EB0C0541EA85
:100E1800045170BD41F480114FF0000E013C90E682
:100E280045EA060E8DE60CEA135594EA0C0F08BF46
:100E380095EA0C0F3FF43BAF94EA0C0F0AD150EA45
:100E480001347FF434AF95EA0C0F7FF425AF1046D8
:100E580019462CE795EA0C0F06D152EA03353FF400
:100E6800FDAE1046194622E750EA410618BF52EA7D
:100E780043067FF4C5AE50EA41047FF40DAF52EA51
:100E880043057FF4EBAE12E74FF0FF3C06E000BFEE
:100E98004FF0010C02E000BF4FF0010C4DF804CDFB
:100EA8004FEA410C7FEA6C5C4FEA430C18BF7FEABB
:100EB8006C5C1BD001B050EA410C0CBF52EA430CE9
:100EC80091EA030F02BF90EA020F0020704710F169
:100ED800000F91EA030F58BF994208BF90422CBFF8
:100EE800D8176FEAE37040F0010070474FEA410CF1
:100EF8007FEA6C5C02D150EA013C07D14FEA430C0F
:100F08007FEA6C5CD6D152EA033CD3D05DF8040B7F
:100F1800704700BF8446104662468C4619466346B1
:100F280000E000BF01B5FFF7B7FF002848BF10F188
:100F3800000F01BD4DF808EDFFF7F4FF0CBF0120CD
:100F480000205DF808FB00BF4DF808EDFFF7EAFF49
:100F580034BF012000205DF808FB00BF4DF808ED04
:100F6800FFF7E0FF94BF012000205DF808FB00BFF9
:100F78004DF808EDFFF7CEFF94BF012000205DF883
:100F880008FB00BF4DF808EDFFF7C4FF34BF012090
:100F980000205DF808FB00BF4FEA410C7FEA6C5C5B
:100FA80002D150EA013C0AD14FEA430C7FEA6C5C5B
:100FB80002D152EA033C02D14FF0000070474FF0D3
:100FC800010070474FEA410212F5001215D211D5FF
:100FD8006FF47873B3EB625212D94FEAC12343F02E
:100FE800004343EA505311F0004F23FA02F018BFB0
:100FF800404270474FF00000704750EA013005D179
:1010080011F0004008BF6FF0004070474FF000003B
:10101800704700BF53B94AB9002908BF00281CBF50
:101028004FF0FF314FF0FF3000F08CB9ADF1080CF4
:101038006DE904CE00F006F8DDF804E0DDE90223EE
:1010480004B070472DE9F047089D8E46044688464F
:10105800002B4AD18A42174662D9B2FA82F64EB1BB
:10106800C6F1200301FA06F820FA03F3B74043EA71
:101078000808B4404FEA174EB8FBFEF11FFA87FC88
:101088000EFB118801FB0CF2230C43EA08439A4239
:1010980009D9FB1801F1FF3080F0EB809A4240F249
:1010A800E88002393B449A1AB2FBFEF00EFB10228C
:1010B80000FB0CFCA3B243EA02439C4509D9FB1888
:1010C80000F1FF3280F0D7809C4540F2D4803B4449
:1010D800023840EA01400021A3EB0C031DB10022B5
:1010E800F340C5E90032BDE8F0878B4205D90DB160
:1010F800C5E9000100210846F5E7B3FA83F10029A4
:1011080046D1734502D3824200F20881841A6EEBFD
:10111800030201209046002DE5D0C5E90048E2E72A
:10112800002A00F09180B2FA82F6002E40F0A580E5
:101138008A1A0121030C4FEA174E80B2BCB2B2FBE7
:10114800FEFC0EFB1C2243EA024304FB0CF29A420B
:1011580007D9FB180CF1FF3802D29A4200F2E3805B
:10116800C4469B1AB3FBFEF20EFB123302FB04F4D7
:1011780040EA03439C4207D9FB1802F1FF3002D230
:101188009C4200F2CD8002461B1B42EA0C40A5E7B8
:10119800C1F120068B4022FA06F71F432EFA06FA01
:1011A8004FEA1749BAFBF9F80EFA01FE20FA06F3DE
:1011B80009FB18AA1FFA87FC43EA0E0300FA01FE8E
:1011C80008FB0CF01C0C44EA0A44A04202FA01F2A3
:1011D8000AD93C1908F1FF3A80F09E80A04240F2FB
:1011E8009B80A8F102083C44241A98B2B4FBF9F396
:1011F80009FB134403FB0CFC40EA0444A44509D949
:101208003C1903F1FF3080F08580A44540F28280CC
:10121800023B3C4443EA0840A4EB0C04A0FB028CCC
:1012280064454346E14664D361D05DB1BEEB030239
:1012380064EB090404FA06F622FA01F31E43CC40D3
:10124800C5E9006400214EE7B1FBF2FC010C41EA5C
:101258000E4180B240EA01423B46B1FBF7F1384605
:101268003C46B846BE462026A2EB080241EA0C419D
:1012780065E7014617E710462BE7C6F120012EFA6D
:1012880001FCB7400EFA06FE20FA01F141EA0E0110
:101298004FEA174EBCFBFEF8BCB20EFB18CC08FB9D
:1012A80004F90A0C42EA0C42B04091454FEA104357
:1012B80080B23ED9BA1808F1FF3C01D291451FD837
:1012C800A2EB0902B2FBFEF909FB04F80EFB192A8E
:1012D8008AB242EA0A42424529D2BA1809F1FF31D4
:1012E800C2D24245C0D2A9F102013A44BCE7C64580
:1012F8009BD2B8EB02036CEB070C0138E14694E78C
:10130800A7EB09094A44B2FBFEF9A8F1020C09FB54
:1013180004F8DBE703467DE7D04665E70846FAE6CA
:101328003B44023A30E7ACF1020C3B4419E749462A
:101338009AE7A2EB0902B2FBFEF9C44609FB04F8DE
:10134800C4E700BF704700BF70B500248AB0CDE97C
:101358000644CDE908442A4B2A4D9A692A4E42F0A0
:1013680010029A619A69284602F010020192019AC5
:101378009A694FF4AC5142F040029A619A6902F0BE
:1013880040020292029A9A6942F020029A619A698E
:1013980002F020020392039A9A6942F004029A61C9
:1013A8009A6902F004020492049A9A6942F00802C7
:1013B8009A619B69224603F008030593059B00F098
:1013C80057FE304622461E2100F052FE00244FF4FC
:1013D800AC5201232846022506A9CDE90623CDE90A
:1013E800084500F02BFC1E220123304606A9CDE952
:1013F8000845CDE9062300F021FC0AB070BD00BF06
:10140800001002400018014000140140002301228E
:1014180030B5012091B04FF480310224CDE90B336F
:10142800CDE90233CDE90433089301930A92099375
:101438004FF480324FF4E013CDE9060106A8CDE958
:101448000E230D9400F018FE08B172B6FEE70346AD
:101458000F254FF48062214601A802940393059357
:101468000195049200F0F6FF08B172B6FEE711B0DC
:1014780030BD00BF80B500F037FBFFF7C7FFFFF7AF
:1014880063FF00F0EFF800F0CDF900F099F900F0F3
:10149800FDF902F05DF901F0E9FD1A4801F01AF9C9
:1014A8003C21194801F0C4FA3C21184801F0C0FA5F
:1014B8000421174801F0C0F90C21154801F0BCF9C6
:1014C800144F154E154D164C3868FFF7C1F80B46EA
:1014D80002462946204602F029FF002122460846F6
:1014E80001F090FF3068FFF7B3F802460B4620463C
:1014F8000C4902F01BFF22460321002001F082FF65
:10150800E2E700BF34070020C40700207C07002062
:10151800100800206408002060080020688A00087D
:10152800FC060020748A000872B6FEE70E4B82B0F3
:101538009A690E4942F001029A619A6902F0010221
:101548000092009ADA6942F08052DA61DB6903F0AE
:1015580080530193019B4B6823F0E06343F00073D1
:101568004B6002B0704700BF00100240000001400D
:10157800FEE700BFFEE700BFFEE700BFFEE700BFD3
:10158800FEE700BF704700BF704700BF704700BF4D
:1015980000F0BCBA014801F065BC00BF3407002068
:1015A8000120704708B502F075FF162203464FF078
:1015B800FF301A6008BD00BF08B502F06BFF1623A4
:1015C8000360FEE770B5161E07DD0C468D19AFF3F4
:1015D800008004F8010BA542F9D1304670BD00BF68
:1015E80070B5161E07DD0C468D1914F8010BAFF304
:1015F8000080A542F9D1304670BD00BF4FF0FF30E2
:10160800704700BF4FF4005300204B60704700BF85
:1016180001207047002070470D49034610B50D4A58
:101628000D4C0868121B20B10344934207D80B6085
:1016380010BD0A4C2046034493420C60F7D902F0CF
:1016480029FF0C2203464FF0FF301A6010BD00BF7F
:10165800300700200000012000040000880B002053
:10166800704700BFF0B500249DB02022214614A881
:10167800CDE90944CDE90D44CDE90F44CDE9114444
:10168800089402940C940B94039402F0B4FE41F66F
:101698001F43474DEB60474B2846C5E90144C5E960
:1016A8000444AC612B6000F097FF002849D14FF447
:1016B80080533F4808A9089301F022FB002852D123
:1016C8003B4801F03BF800284AD100220023384863
:1016D80002A9CDE9022301F061FC00283DD10023D5
:1016E800602400260027042231480CA9CDE90C43C8
:1016F800CDE90E33CDE91067129301F0FBF948BB31
:101708000C222B480CA901F0F5F900BB0023002698
:101718004FF40057264814A9CDE91867CDE91533C9
:10172800149317931B9301F073FC68B90023214AA3
:101738002968CDE904339142CDE9063316D01DB0AE
:10174800F0BDFFF7F1FEB2E7FFF7EEFEEEE7FFF7B9
:10175800EBFEDBE7FFF7E8FED2E7FFF7E5FEBEE7C3
:10176800FFF7E2FEB1E7FFF7DFFEA9E74FF4904489
:101778000225022603F1804303F504339A690E48D3
:1017880042F040029A619B6904A903F04003019367
:10179800019BCDE90445079600F050FA074A5368C3
:1017A80043F0E06343F0C00353601DB0F0BD00BFD9
:1017B80010080020002C01400018014000000140E2
:1017C80030B58DB02022002104A802F014FE0321B8
:1017D800002301224FF080454FF6FF741048039113
:1017E80003A9C0E90133C0E903430560009383619D
:1017F80001930592099201F07DF850B90022002367
:1018080069460748CDE9002301F0C8FB20B90DB0AF
:1018180030BDFFF789FEF1E7FFF786FE0DB030BD5A
:10182800C407002010B58CB02022002104A802F0C3
:10183800E2FD00234FF6FF710122032411480093B3
:10184800C0E901330361836101930F4BC16003A9B0
:10185800039405920992036001F04CF850B90022F4
:10186800002369460748CDE9002301F097FB20B91A
:101878000CB010BDFFF758FEF1E7FFF755FE0CB0AE
:1018880010BD00BF7C07002000080040002340F284
:101898009F51632210B51748174C86B0CDE9033322
:1018A800C0E90232046002930093416003618361DE
:1018B8000593019300F090FE90B94FF480530D48C2
:1018C80002A9029301F01CFA88B900220023694694
:1018D8000848CDE9002301F061FB20B906B010BD2E
:1018E800FFF722FEE9E7FFF71FFE06B010BDFFF77E
:1018F8001BFEEAE734070020000C004000B5164A3A
:10190800036883B0934205D0144A93420FD003B0C2
:101918005DF804FB124B9A6942F400629A619B6974
:1019280003F400630093009B03B05DF804FB0022FE
:101938000B4B3220D96941F00801D961DB691146A6
:1019480003F008030193019B00F016F9322003B05D
:101958005DF804EB00F04CB9002C0140000C00408D
:101968000010024030B5002403688BB0B3F1804FFB
:10197800CDE90644CDE9084404D0304A934239D031
:101988000BB030BD4FF4004503F50433DA6906A9FE
:1019980042F00102DA61DA69294802F00102019293
:1019A800019A9A6942F004029A619A6902F0040263
:1019B8000292029A9A6942F008029A619B69069516
:1019C80003F008030393039B00F038F9082200236F
:1019D8001C4806A9CDE90623089400F02FF91A4AF5
:1019E800536823F4407343F0E06343F48073536017
:1019F8000BB030BD4FF44054144B1548DA6906A9B2
:101A080042F00402DA61DA6902F004020492049AEC
:101A18009A6942F020029A619B69069403F02003B8
:101A28000593059B00F00AF9074A536843F0E06301
:101A380043F4805353600BB030BD00BF0008004032
:101A480000080140000C0140000001400010024065
:101A580000140140FFF704FE0B480C490C4A002310
:101A680002E0D458C4500433C4188C42F9D3094A4C
:101A7800094C002301E013600432A242FBD302F0B8
:101A88000FFDFFF7F7FC704700000020E00600207C
:101A980038940008E0060020840B0020FEE70000D0
:101AA80038B54FF47A730D4A054611780C4AB3FBE2
:101AB800F1F31268B2FBF3F000F0A8F808B90F2DA3
:101AC80001D9012038BD0446024629464FF0FF30AF
:101AD80000F052F8034B20461D6038BD040000207A
:101AE8000000002008000020074A08B513680320FA
:101AF80043F01003136000F02DF80F20FFF7D0FF1C
:101B0800FFF714FD002008BD00200240034A044BE3
:101B180011681B780B441360704700BF58080020F9
:101B280004000020014B1868704700BF58080020C7
:101B380038B50446FFF7F6FF631C054602D0044B90
:101B48001B781C44FFF7EEFF401BA042FAD338BDB8
:101B5800040000204FF6FF0C06490302CA6803F48C
:101B6800E06302EA0C02134343F0BF6343F400331B
:101B7800CB60704700ED00E01B4B00B5DB68C3F39A
:101B88000223C3F1070EBEF1040F03F1040C28BFB2
:101B98004FF0040EBCF1060F1CD9A3F1030C4FF053
:101BA800FF3303FA0CF322EA03024FF0FF3303FA80
:101BB8000EF321EA030303FA0CF313431B01002875
:101BC800DBB20ADB00F1604000F5614080F80033C9
:101BD8005DF804FB00229446E7E7044A00F00F0092
:101BE800024413765DF804FB00ED00E0FCEC00E035
:101BF800002807DB012300F01F01034A40098B403E
:101C080042F82030704700BF00E100E00138B0F131
:101C1800807F01D3012070474FF0E0234FF0F00C94
:101C28000022072110B4044C586184F823C01046E0
:101C38009A6110BC1961704700ED00E02DE9F04F82
:101C48000C6885B0002C00F08C80B14B984200F0F5
:101C5800B0800022031D019301250F2792461346E9
:101C68008346DFF8B08205E0013334FA03F002F16D
:101C7800040276D005FA03F030EA040C00EA040600
:101C8800F2D14C68122C73D8122C16D8DFE814F055
:101C9800820013008D00A001150015001500150025
:101CA8001500150015001500150015001500150084
:101CB800150089006C00D1F80CA0FF2E99BF5C4676
:101CC8009446019CA2F1200C206807FA0CFE20EA39
:101CD8000E000AFA0CFC40EA0C0020604C68E00098
:101CE80038D5D8F8180023F0030C40F00100C8F8E4
:101CF8001800D8F818000CF1804C00F0010003908F
:101D08000CF5803C03F0030903984FEA8909DCF8D5
:101D1800080007FA09FE20EA0E0E7F48834500F006
:101D28000B817E48834500F044817D48834500F05F
:101D38007F817C48834500F04E817B4883450CBFFA
:101D48000520062000FA09F040EA0E00F9E020EA32
:101D5800060020600C68013334FA03F002F1040233
:101D680088D105B0BDE8F08FC86800F10C0AA4E777
:101D7800DFF8B8C164450DD000F21081ACF5801CC5
:101D8800644507D00CF5702C644503D0ACF5801C75
:101D9800644592D18C68002C40F011814FF0040A00
:101DA8008BE7C86800F1040A87E7C86800F1080AE9
:101DB80083E74FF000096FF01F0501274FF00F0E62
:101DC8004B46DFF850C1DFF8688105E0013334FA8B
:101DD80003F205F10405C4D007FA03F232EA040A53
:101DE80004EA0206F2D14C68122C00F2FA80122C96
:101DF80016D8DFE814F008011300150130011500AA
:101E08001500150015001500150015001500150022
:101E1800150015001500150019011101D1F80C90D5
:101E2800FF2E51D9AA46444622680EFA0AFB22EA36
:101E38000B0209FA0AFA42EA0A0222604A68D40046
:101E480046D5DCF8184003F0030A44F00104CCF846
:101E58001840DCF818404FEA8A0A04F00104039499
:101E6800039C23F0030404F1804404F58034D4F87F
:101E780008B00EFA0AFA2BEA0A0AC4F808A0D40233
:101E880028D5DFF8B0A0DAF808403443CAF808408B
:101E9800940229D5DFF89CA0DAF80C403443CAF83C
:101EA8000C4094032AD5DFF88CA0DAF804403443B8
:101EB800CAF804401F4C12F4803F22680CBFB2439A
:101EC800324322600C6881E704464FEA830AABE795
:101ED8000C687BE7DFF85CA0DAF8084024EA06041F
:101EE800CAF808409402D5D4DFF848A0DAF80C40C4
:101EF80024EA0604CAF80C409403D4D4DFF834A0CA
:101F0800DAF8044024EA0604CAF80440D2E700BF1D
:101F18000008014000100240000C01400010014080
:101F28000014014000180140001C0140000022106C
:101F38000408014000040140012000FA09F040EAC9
:101F48000E00CCF80800DFF818C114F4801FDCF884
:101F5800080014BF3043B043CCF80800DFF800C1D4
:101F680014F4001FDCF80C0014BF3043B043CCF865
:101F78000C00DFF8ECC014F4003FDCF8040014BFD8
:101F88003043B04314F4803F354CCCF8040020684B
:101F98003FF4DDAE304320600C6865E6DFF8C4C06E
:101FA80064453FF4F7AE0CF5803C64457FF485AE9C
:101FB800F0E6022000FA09F040EA0E00C1E7012C21
:101FC8004FF0080A0CBFCBF81000CBF8140074E6E9
:101FD8004FF0000A71E6042000FA09F040EA0E000A
:101FE800AFE7DFF884A054450DD027D8AAF5801AAA
:101FF800544508D00AF5702A544504D0AAF5801A29
:1020080054457FF40DAF8C6814B3012C174C25D0C0
:1020180062614FF0080903E7CA6802F10C09FFE69C
:10202800CA6802F10809FBE6CA6802F10409F7E682
:10203800032000FA09F040EA0E0082E7DFF824A046
:102048005445E0D00AF5803A54457FF4E9AEDAE722
:102058004FF00409E4E64FF00009E1E62261D8E711
:102068000004014000003110000022100008014067
:1020780002B9090401617047002800F0E4812DE9E4
:10208800F04103680446DD0782B035D599494A68AE
:1020980002F00C02042A00F0ED804A6802F00C02FB
:1020A800082A00F0E3806368B3F5803F10D0002B66
:1020B80000F00A81B3F5A02F00F080818D4B1A68DB
:1020C80022F480321A601A6822F480221A6004E02E
:1020D800884A136843F480331360FFF723FD854E65
:1020E800054605E0FFF71EFD401B642800F2E88066
:1020F80033689A03F6D523689F0728D57D4A516827
:1021080011F00C0F00F09680516801F00C010829BD
:1021180000F08C802369002B00F016810122764B99
:10212800744E1A60FFF7FEFC054605E0FFF7FAFC5F
:10213800401B022800F2C48033689807F6D533683C
:10214800626923F0F80343EAC203336023681A077D
:1021580029D45D074BD5674BDA69D00000F184803C
:102168000125DA6942F08052DA61DB6903F08053B5
:102178000093009B614E3368D90540F19180E36874
:10218800012B00F0F280002B00F0BE80052B594B8C
:102198001A6A00F0208122F001021A621A6A22F0FB
:1021A80004021A62E6E0A369002B4CD00122524BCC
:1021B800504EC3F88024FFF7B5FC054604E0FFF74E
:1021C800B1FC401B02287BD8736A9B07F7D54C4BA0
:1021D8004C4A1B68A2FB03235B0A019300BF019BC7
:1021E8005A1E0192002BF9D123685D07B3D4E36925
:1021F800C3B1404D6A6802F00C02082A00F0CD8095
:102208000022022B3C4B1A6600F0ED80FFF78AFC97
:10221800044604E0FFF786FC001B022850D82B6810
:102228009B01F7D4002002B0BDE8F0815268D603C4
:102238003FF570AF2F4A1268950725D52269012A04
:1022480022D00120EFE72C4A2A4EC2F88034FFF74B
:1022580069FC054604E0FFF765FC401B02282FD8FF
:10226800736A9F07F7D4BFE7002583E74A68D0035E
:102278007FF519AF1F4A126891037FF53DAF626879
:10228800002A7FF439AFDCE71A4960690A6822F04E
:10229800F80242EAC0020A601A077FF55AAF82E7DD
:1022A800336843F480733360FFF73CFC07463368B8
:1022B800DA053FF564AFFFF735FCC01B6428F6D993
:1022C800032002B0BDE8F0810A4D2B6823F4803367
:1022D8002B602B6823F480232B60FFF723FC064632
:1022E80004E0FFF71FFC801B6428E9D82B689B03D8
:1022F800F7D400E70010024000004242007000409E
:1023080000000020D34D6210504E41F28838336AE5
:1023180023F001033362336A23F004033362FFF7C7
:1023280001FC074604E0FFF7FDFBC01B4045C7D88A
:10233800336A9807F7D4002D3FF459AF434AD3695D
:1023480023F08053D36152E7414A404E1360FFF7B0
:10235800E9FB054604E0FFF7E5FB401B0228AFD880
:1023680033689907F7D42368F1E6384A136A43F0CB
:1023780001031362FFF7D6FB41F288380646334F54
:1023880004E0FFF7CFFB801B404599D83B6A9B07C9
:10239800F7D5002D3FF42BAFD0E7012B3FF451AF19
:1023A8006B68226A03F4803191427FF44AAF606A15
:1023B80003F47013181A18BF012034E703F180439F
:1023C800A3F53C331A6842F480221A601A6842F472
:1023D80080321A6081E642F004021A621A6A42F0F8
:1023E80001021A62C6E7FFF79DFB064605E0FFF704
:1023F80099FB801B02283FF663AF2B689901F6D43E
:10240800236AB3F5803F05D16A68A16822F40032D7
:102418000A436A6001200D4D616A6A680B4322F421
:1024280074120B4913436B600866FFF77BFB044685
:1024380005E0FFF777FB001B02283FF641AF2B684A
:102448009A01F6D5EEE60120704700BF0010024061
:1024580000004242002800F0A180564A2DE9F041D0
:102468001368044603F007038B420D460CD2136829
:1024780023F007030B431360136803F007038B4231
:1024880002D00120BDE8F08123689E0714D55807C3
:1024980004D549494A6842F4E0624A60190704D5FC
:1024A80045494A6842F460524A604349A0684A680C
:1024B80022F0F00202434A60DA0720D562683E4BF8
:1024C800012A1B686CD0022A65D09E07D9D53A4EDE
:1024D80041F28838736823F0030313437360FFF7EE
:1024E80021FB074604E0FFF71DFBC01B40455AD8F7
:1024F8007368626803F00C03B3EB820FF3D12D4AC3
:10250800136803F00703AB4209D9136823F00703E4
:102518002B431360136803F00703AB42B1D1236860
:10252800580706D52449E0684A6822F4E062024365
:102538004A60190707D5204A2169536823F4605374
:1025480043EAC10353601C494A6802F00C03082B94
:1025580010D01A4B184A1A4852681A49C2F3031283
:10256800805C194AC34008681360FFF799FA002095
:10257800BDE8F0811548C2F38343D203C35C14D588
:102588000E484A6800FB03F31149C2F340428A5CD3
:10259800B3FBF2F3DEE79F0199D472E7012070479D
:1025A8009B0394D46DE703206CE70A4A02FB03F30C
:1025B800D0E700BF002002400010024000127A005D
:1025C800808A00080800002000000020948A000883
:1025D800908A000800093D00002876D010B590F8D0
:1025E8003D30044603F0FF02002B69D00223226825
:1025F800374984F83D308A4213681CD001F50061E0
:102608008A4218D0B2F1804F48D0A1F598318A4259
:1026180044D001F580618A4240D001F580618A4248
:102628003CD0A06923F080030343E168136063682A
:10263800D162936212E0A06823F07003216903431A
:1026480023F440730B43A16923F080030B43136009
:10265800E368D36263689362636913630123536118
:102668001369DB0703D5136923F001031361012301
:1026780084F8463084F83E3084F83F3084F840309F
:1026880084F8413084F8423084F8433084F8443088
:1026980084F8453084F83D30002010BDA16823F04F
:1026A800700320690B4323F44073A169034323F0AB
:1026B8008003E0680B4361681360D0629162CDE7E4
:1026C80080F83C20FFF71AF990E70120704700BF17
:1026D800002C014090F83D30012B27D102220368DD
:1026E80080F83D20DA68124942F001028B42DA6034
:1026F80011D0104A93420ED0B3F1804F0BD0A2F5FF
:102708009832934207D002F58062934203D002F5D3
:102718008062934204D19A6802F00702062A03D025
:102728001A6842F001021A600020704701207047C1
:10273800002C014000340140704700BF002876D0CB
:1027480010B590F83D30044603F0FF02002B69D025
:1027580002232268374984F83D308A4213681CD026
:1027680001F500618A4218D0B2F1804F48D0A1F536
:1027780098318A4244D001F580618A4240D001F5FF
:1027880080618A423CD0A06923F080030343E1685A
:1027980013606368D162936212E0A06823F070034B
:1027A8002169034323F440730B43A16923F0800399
:1027B8000B431360E368D3626368936263691363CE
:1027C800012353611369DB0703D5136923F0010360
:1027D8001361012384F8463084F83E3084F83F3092
:1027E80084F8403084F8413084F8423084F843302B
:1027F80084F8443084F8453084F83D30002010BD1A
:10280800A16823F0700320690B4323F44073A16986
:10281800034323F08003E0680B4361681360D062D0
:102828009162CDE780F83C20FFF786FF90E7012012
:10283800704700BF002C014099BB90F83E30012B37
:102848003BD1022380F83E300122036801F01F01CA
:10285800186A8A4020EA020010B41862196A224CE9
:102868000A43A3421A622AD0204A934227D0B3F1DE
:10287800804F0AD01E4A934207D002F580629342E5
:1028880003D002F58062934204D19A6802F00702ED
:10289800062A03D01A6842F001021A60002010BC10
:1028A8007047042910D0082916D090F84130012B20
:1028B80003D1022380F84130C6E7012070475A6CE3
:1028C80042F400425A64E0E790F83F30012BF4D11B
:1028D800022380F83F30B7E790F84030012BECD165
:1028E800022380F84030AFE7002C0140003401405B
:1028F80000040040002800F0968070B590F83D3044
:1029080004460D4603F0FF02002B00F087800222E8
:10291800236884F83D209A68444922F4804222F0D2
:1029280007029A608B421A6824D001F500618B4235
:1029380020D0B3F1804F0BD0A1F598318B4207D04E
:1029480001F580618B4203D001F580618B4207D18C
:10295800A16822F070020A43216922F440720A43F6
:10296800A16922F080020A43E1681A60D9626268AC
:102978009A6212E0A16822F070020A43216922F4E7
:1029880040720A43A16922F080020A431A60E26891
:10299800DA6262689A6262691A6301225A611A6984
:1029A800D20703D51A6922F001021A614FF0010C0F
:1029B80098689969AE69AA6821F4407121F0030109
:1029C80042EA06220A4322F47C462A69E96912018E
:1029D80042EA0122E96826F0FC060A43196A21F056
:1029E800220E296A42EA0132324369686E692D680B
:1029F80041EA0611284341EA0E0198609A6119627A
:102A080084F846C084F83EC084F83FC084F842C0C9
:102A180084F843C084F83DC0002070BD80F83C2095
:102A2800FEF7A0FF73E70120704700BF002C0140AC
:102A3800034600B590F83E0093F83F2093F842C053
:102A4800C0B293F843E05FFA8CFCE1B9012802D0E8
:102A580001205DF804FBBCF1010FFAD102211A68CC
:102A680083F83E1083F84210136A23F001031362BF
:102A7800136A43F0010313621368002043F0010353
:102A880013605DF804FB0429D2B25FFA8EFE1CD0F5
:102A98000128DDD1012ADCD1BCF1010FD9D1BEF169
:102AA800010FD6D102211A6883F83E1083F83F102F
:102AB80083F8421083F84310136A23F0010313626A
:102AC800136A43F0010313620AE0012AC0D1BEF180
:102AD800010FBDD102211A6883F83F1083F8431013
:102AE800136A23F010031362136A43F0100313628E
:102AF800C2E700BF90F83C30012B00F0C7800123EB
:102B080030B5844680F83C300C2A08D8DFE802F05B
:102B18003E07070768070707940707070C00002305
:102B28008CF83C30012030BD03680D681A6A186AB9
:102B380022F4005220F4805018625C68D86920F4AE
:102B4800E64040EA05208D6842EA05326B4DAB420B
:102B580000F0AE8005F50065AB4200F0A9805C602E
:102B6800D8614868096918641A62DA6942F400622F
:102B7800DA61DA6922F48062DA61DA6942EA01220A
:102B8800DA6100238CF83C30002030BD03680D6802
:102B98001A6A186A22F0020220F0010018625C68C2
:102BA800986920F0730028438D682A43534DAB423F
:102BB80000F0848005F50065AB427FD05C609861C9
:102BC8004868096958631A629A6942F008029A616A
:102BD8009A6922F004029A619A690A439A61D0E7D5
:102BE80003680D681A6A186A22F0200220F01000A3
:102BF80018625C68986920F4E64040EA05208D6810
:102C080042EA05123D4DAB4267D005F50065AB427F
:102C180063D05C6098614868096998631A629A6928
:102C280042F400629A619A6922F480629A619A6910
:102C380042EA01229A61A4E703680D681A6A186AD1
:102C480022F4007220F4807018625C68D86920F061
:102C5800730028438D6842EA0522284DAB4217D0FD
:102C680005F50065AB4213D05C60D8614868096916
:102C7800D8631A62DA6942F00802DA61DA6922F086
:102C88000402DA61DA690A43DA617AE702207047F6
:102C9800CD6822F4006242EA052224F44054D1E9C6
:102CA80005E54EEA050E22F4806244EA0E14DBE7DD
:102CB8004D6924F4804444EA851450E7CD6822F035
:102CC80008022A4324F44074D1E905E54EEA050ECA
:102CD80022F004024EEA040470E7CD6822F0800274
:102CE80042EA051224F44064D1E905E54EEA050EEE
:102CF80022F0400244EA8E048BE700BF002C01401A
:102D080090F83C20012A6ED0034630B401200224FA
:102D18001A6883F83C0083F83D40946824F47F44A3
:102D280024F0770494600C68602C76D011D8402C7D
:102D38005BD02ED8202C04D000F2888034F010010B
:102D48001FD1916821F07001214341F00701916082
:102D580016E0B4F5805F13D0B4F5005F33D0702C63
:102D68000FD1D1E9015094682843CD6824F47F41FC
:102D780040EA052008439060916841F0770191602E
:102D880000200121002283F83D1083F83C2030BC4C
:102D98007047502CF5D14868CC68116A21F00A01B7
:102DA8000843116A21F001011162916921F0F001D3
:102DB80041EA041191611062916821F0700141F0BB
:102DC80057019160DCE7D1E9015094682843CD6848
:102DD80024F47F4140EA052008439060916841F45B
:102DE80080419160CCE7022070474868CC68116A3E
:102DF80021F00A010843116A21F001011162916969
:102E080021F0F00141EA041191611062916821F00A
:102E1800700141F047019160B2E74868CC68116AD7
:102E280021F0A00141EA0011106A20F010001062A0
:102E3800906920F4704040EA043090611162916812
:102E480021F0700141F06701916099E7302C3FF45F
:102E580078AF96E7704700BF704700BF704700BF64
:102E6800704700BF036870B5DE681D690446A9078E
:102E780001D5B20751D4690701D572073AD42B0797
:102E880001D5300724D4EA0601D5F30610D4E807A3
:102E980001D5F10757D42A0601D533065BD4680655
:102EA80001D571065FD4AA0601D5B30642D470BD18
:102EB8006FF0100108222368204619612277DB6928
:102EC80013F4407F63D0FFF7C7FF00232377DEE7C3
:102ED8006FF0080104222368204619612277DB6914
:102EE800990751D1FFF7B6FF2046FFF7B7FF002338
:102EF8002377C8E76FF0040102222368204619618E
:102F080022779B6913F4407F3BD1FFF7A3FF20464C
:102F1800FFF7A4FF00232377B1E76FF002021A61DD
:102F2800012202779B699B0725D0FFF795FF0023B5
:102F38002377A0E76FF0200223682046BDE87040A1
:102F48001A6100F08FB86FF00102236820461A61F9
:102F580000F0A2F89FE76FF08002236820461A610C
:102F680000F082F89BE76FF04002236820461A6160
:102F7800FFF776FF97E7FFF76DFF2046FFF76EFF35
:102F8800D5E7FFF769FFC5E7FFF766FFAFE7FFF78C
:102F980061FF2046FFF762FF97E700BF90F83C20EB
:102FA800012A2FD0034602201A6830B483F83D0066
:102FB80050680C68144D20F070002043AA429468B1
:102FC800506011D0114882420ED0B2F1804F0BD020
:102FD800A0F59830824207D000F58060824203D085
:102FE80000F58060824204D1496824F080040C43D3
:102FF80094600022012183F83C2083F83D1010469C
:1030080030BC704702207047002C0140003401405A
:1030180090F83C30012B23D00246D1E902034FF04F
:10302800000C23F440730343486823F4806303438C
:10303800086823F400630343086923F4805310B439
:1030480003434C6923F40053C8692343116823F4EC
:10305800804303434B6482F83CC0604610BC704711
:1030680002207047704700BF704700BF4FF0E02252
:103078004FF0090C42F22830136910B4044C05498A
:1030880023F00403136184F800C010BC0880704763
:103098005E0800205C08002038B502680D4B9A4293
:1030A80000D038BD00F01EF80B4C0C4D206000F02D
:1030B80035F803460A4920682B6000F04DF80849A6
:1030C8000446286800F082F801462046BDE83840EA
:1030D80000F0B6B8000C004064080020600800202A
:1030E800CDCC4C3D08B54FF080430022586A5A6257
:1030F80000B2072803DCC31D03DA054808BD0548EC
:1031080008BDFDF7B7FB0449FDF78AF808BD00BF05
:10311800CDCCCCBDCDCCCC3D4F77563C002208B5AC
:10312800094B586A5A62404200B2072803DCC31DA3
:1031380003DA064808BD064808BDFDF79BFB0549AC
:10314800FDF76EF808BD00BF00080040CDCCCCBD2F
:10315800CDCCCC3D4F77563CF8B50B4601461846CA
:10316800FDF7D2FA134E01460546134FFDF7CEFA86
:103178003168FDF7C9FA1149FDF752F83968FDF7CA
:10318800C5FA0F490446FDF735FC48B920460D49F4
:10319800FDF712FC50B10B4C0B483C603560F8BD94
:1031A800074C4FF4E1503C603560F8BD2046FDF710
:1031B8002BFCF2E7740800207008002000009643FA
:1031C8000000E1450000E1C5E0E3FFFFF8B50B466C
:1031D80001461846FDF798FA134E01460546134F67
:1031E800FDF794FA3168FDF78FFA1149FDF718F8E1
:1031F8003968FDF78BFA0F490446FDF7FBFB48B920
:1032080020460D49FDF7D8FB50B10B4C0B483C60EC
:103218003560F8BD074C4FF4E1503C603560F8BDAF
:103228002046FDF7F1FBF2E76C0800206808002053
:10323800000096430000E1450000E1C5E0E3FFFF20
:1032480070B5051E0C461EDB01224FF480711E4826
:103258001E4EFEF70DFF002280211B48FEF708FFD7
:103268003368002C9D631FDB01224FF48051164800
:10327800FEF7FEFE00224FF480611348FEF7F8FEC9
:1032880033681C6470BD00224FF480710E480F4EE5
:10329800FEF7EEFE012280210B48FEF7E9FE3368B7
:1032A8006D42002C9D63DFDA00224FF480510648FE
:1032B800FEF7DEFE01224FF480610348FEF7D8FED8
:1032C800336864421C6470BD001801401008002077
:1032D800F8B5B0274A4D002204212846FEF7C8FE5B
:1032E80008263C46002208212846FEF7C1FE210692
:1032F8004CBF0122002210212846FEF7B9FE013EEC
:10330800012208212846FEF7B3FE640016F0FF06E6
:10331800E4B2E7D1012204212846FEF7A9FE0022E3
:1033280004212846FEF7A4FE0826022400220821CC
:103338002846FEF79DFE22064CBF012200221021DE
:103348002846FEF795FE013E012208212846FEF791
:103358008FFE640016F0FF06E4B2E7D101220421D3
:103368002846FEF785FE002204212846FEF780FE47
:1033780008261024002208212846FEF779FE230695
:103388004CBF0122002210212846FEF771FE013EA3
:10339800012208212846FEF76BFE640016F0FF069E
:1033A800E4B2E7D1012204212846FEF761FE802617
:1033B800012204212846FEF75BFE0824002208218A
:1033C8002846FEF755FE002210212846FEF750FE3B
:1033D800012208212846FEF74BFE631E13F0FF0466
:1033E800ECD1012204212846FEF742FE731E13F099
:1033F800FF06DDD10137FFB2B82F7FF46CAFF8BDFF
:10340800001401402DE9F04F137889B00792039119
:10341800002B00F08D81A3F1200A00230106054648
:103428005FFA8AFA029340F1868101274FF010086B
:10343800039BC54A0233DBB2009302F108030593EC
:1034480002F10F0301920693009B00220421BF485A
:10345800A3F150040826FEF70BFEDFF8F092E4B261
:10346800002208214846FEF703FE22064CBF01222F
:10347800002210214846FEF7FBFD013E01220821EB
:103488004846FEF7F5FD640016F0FF06E4B2E7D102
:1034980001220421AD48FEF7EBFD00220421AB48D0
:1034A800FEF7E6FD08264446DFF8A0920022082130
:1034B8004846FEF7DDFD23064CBF012200221021FD
:1034C8004846FEF7D5FD013E012208214846FEF791
:1034D800CFFD640016F0FF06E4B2E7D10122042113
:1034E8009A48FEF7C5FD002204219848FEF7C0FD62
:1034F80008263C46DFF85492002248460821FEF789
:10350800B7FD20064CBF0122002210214846FEF7D5
:10351800AFFD013E012208214846FEF7A9FD6400DF
:1035280016F0FF06E4B2E7D1012204218748FEF72E
:103538009FFD019B4FEA0A1B03EB0A19059B834E6B
:1035480003EB0A1ACDF810B001220421304619F80D
:1035580001BB0824FEF78CFD002208213046FEF747
:1035680087FD1BF0800F14BF012200221021304676
:10357800FEF77EFD013C012208213046FEF778FD6A
:103588004FEA4B0B14F0FF045FFA8BFBE4D10122E6
:1035980004213046FEF76CFDCA45D5D1009B0022B8
:1035A80004216A48A3F14F04DDF810B00826FEF79D
:1035B8005FFDDFF89891E4B2002208214846FEF743
:1035C80057FD21064CBF0122002210214846FEF774
:1035D8004FFD013E012208214846FEF749FD6400DF
:1035E80016F0FF06E4B2E7D1012204215748FEF79E
:1035F8003FFD002204215548FEF73AFD0824534EAA
:10360800002208213046FEF733FD18F0800F14BF62
:103618000122002210213046FEF72AFD013C01223A
:1036280008213046FEF724FD4FEA480814F0FF044D
:103638005FFA88F8E4D1012204214448FEF718FD16
:10364800002204214148FEF713FD08243F4E0022C2
:1036580008213046FEF70CFD3A064CBF0122002235
:1036680010213046FEF704FD013C012208213046B6
:10367800FEF7FEFC7F0014F0FF04FFB2E7D1012241
:1036880004213248FEF7F4FC019B0BF1070898442B
:10369800069B2E4F9B4401220421384618F8016FDF
:1036A8000824FEF7E5FC002208213846FEF7E0FC76
:1036B80033064CBF0122002210213846FEF7D8FC01
:1036C800013C012208213846FEF7D2FC760014F0AE
:1036D800FF04F6B2E7D1012204213846FEF7C8FC00
:1036E800D845D8D105F10803DDB2029B079A01330A
:1036F800DBB20293782DD35C0FD8CBB1A3F1200AAB
:103708005FFA8AFA039B4FEA151805F00E07009333
:1037180048F0100847F0010796E6039A0232D2B241
:1037280003922BB1A3F1200A00255FFA8AFAE9E790
:1037380009B0BDE8F08F044B03F1080201930F3381
:1037480005920693DEE700BFA48A00080014014032
:103758000420012170B501240325C64B86B09A695F
:10376800C54E42F008029A619B69CDE9020103F057
:103778000803C148019302A9CDE90445019BFEF75E
:103788005DFA08220123BC4802A9CDE90445CDE928
:103798000223FEF753FA01231022B74802A9CDE904
:1037A8000223CDE90445FEF749FA01220421B24873
:1037B800FEF75EFC01220821AF48FEF759FC012202
:1037C8001021AD48FEF754FC01220221AA48FEF759
:1037D8004FFC6420FEF7ACF900220221A648FEF750
:1037E80047FC6420FEF7A4F901220221A248FEF753
:1037F8003FFC00220421A048FEF73AFC0825AE242D
:10380800002208213046FEF733FC22064CBF012275
:10381800002210213046FEF72BFC013D0122082131
:103828003046FEF725FC640015F0FF05E4B2E7D149
:10383800012204219048FEF71BFC002204218E4837
:10384800FEF716FC082502248B4E0022082130467C
:10385800FEF70EFC23064CBF012200221021304641
:10386800FEF706FC013D012208213046FEF700FC68
:10387800640015F0FF05E4B2E7D1012204217E4877
:10388800FEF7F6FB002204217B48FEF7F1FB082532
:103898001024794E002230460821FEF7E9FB200665
:1038A8004CBF0122002210213046FEF7E1FB013D0A
:1038B800012208213046FEF7DBFB640015F0FF0506
:1038C800E4B2E7D1012204216B48FEF7D1FB0022C4
:1038D80004216948FEF7CCFB08244025664E0821E0
:1038E80000223046FEF7C4FB290613D50122102119
:1038F8003046FEF7BDFB013C012208213046FEF7A9
:10390800B7FB14F0FF0415D0002208213046FEF75B
:10391800AFFB0025002210213046FEF7A9FB013C31
:10392800012208213046FEF7A3FB6D0014F0FF04C6
:10393800EDB2D4D1012204214F48FEF799FB0022B1
:1039480004214D48FEF794FB082581244A4E0022A5
:1039580008213046FEF78CFB22064CBF01220022CC
:1039680010213046FEF784FB013D01220821304634
:10397800FEF77EFB640015F0FF05E4B2E7D10122F3
:1039880004213D48FEF774FB002204213A48FEF763
:103998006FFB0825CF24384E002208213046FEF759
:1039A80067FB23064CBF0122002210213046FEF798
:1039B8005FFB013D012208213046FEF759FB6400F8
:1039C80015F0FF05E4B2E7D1012204212A48FEF7E9
:1039D8004FFB002204212848FEF74AFB0825A124B2
:1039E800254E002230460821FEF742FB20064CBF38
:1039F8000122002210213046FEF73AFB013D012248
:103A080008213046FEF734FB640015F0FF05E4B2E8
:103A1800E7D1012204211848FEF72AFB00220421DD
:103A28001548FEF725FB0825C824134E0022082157
:103A38003046FEF71DFB21064CBF01220022102153
:103A48003046FEF715FB013D012208213046FEF7FE
:103A58000FFB640015F0FF05E4B2E7D10122042151
:103A68000548FEF705FB002204210348FEF700FB8A
:103A780004E000BF00100240001401400825A624FD
:103A8800CA4E002208213046FEF7F2FA22064CBF41
:103A98000122002210213046FEF7EAFA013D0122F8
:103AA80008213046FEF7E4FA640015F0FF05E4B299
:103AB800E7D101220421BD48FEF7DAFA00220421E9
:103AC800BA48FEF7D5FA0825A824B84E00220821DE
:103AD8003046FEF7CDFA23064CBF01220022102102
:103AE8003046FEF7C5FA013D012208213046FEF7AF
:103AF800BFFA640015F0FF05E4B2E7D10122042102
:103B0800AA48FEF7B5FA00220421A848FEF7B0FA41
:103B180008253F24A54E002230460821FEF7A8FAC2
:103B280020064CBF0122002210213046FEF7A0FAE1
:103B3800013D012208213046FEF79AFA640015F08B
:103B4800FF05E4B2E7D1012204219848FEF790FA74
:103B5800002204219548FEF78BFA0825D324934EBA
:103B6800002208213046FEF783FA21064CBF0122C5
:103B7800002210213046FEF77BFA013D0122082180
:103B88003046FEF775FA640015F0FF05E4B2E7D198
:103B9800012204218548FEF76BFA0022042183489C
:103BA800FEF766FA0824814D002208212846FEF710
:103BB8005FFA002210212846FEF75AFA012208214E
:103BC8002846FEF755FA621E12F0FF04ECD10122D6
:103BD80004217648FEF74CFA224604217348FEF782
:103BE80047FA0825D524714E002208213046FEF7F1
:103BF8003FFA22064CBF0122002210213046FEF770
:103C080037FA013D012208213046FEF731FA6400F7
:103C180015F0FF05E4B2E7D1012204216348FEF75D
:103C280027FA002204216148FEF722FA002208211F
:103C38005E48FEF71DFA012210215C48FEF718FACB
:103C4800012208215948FEF713FA0724574D00228C
:103C580008212846FEF70CFA002210212846FEF714
:103C680007FA012208212846FEF702FA621E12F01E
:103C7800FF04ECD1012204214C48FEF7F9F9224651
:103C880004214A48FEF7F4F90825D924474E0022B2
:103C980008213046FEF7ECF923064CBF012200222A
:103CA80010213046FEF7E4F9013D01220821304693
:103CB800FEF7DEF9640015F0FF05E4B2E7D1012252
:103CC80004213A48FEF7D4F9002204213748FEF7C8
:103CD800CFF90825F124354E002230460821FEF799
:103CE800C7F920064CBF0122002210213046FEF7FA
:103CF800BFF9013D012208213046FEF7B9F96400F9
:103D080015F0FF05E4B2E7D1012204212748FEF7A8
:103D1800AFF9002204212548FEF7AAF90825DA247C
:103D2800224E002208213046FEF7A2F921064CBF98
:103D38000122002210213046FEF79AF9013D0122A6
:103D480008213046FEF794F9640015F0FF05E4B247
:103D5800E7D1012204211548FEF78AF9002204213F
:103D68001248FEF785F908251224104E0022082172
:103D78003046FEF77DF922064CBF012200221021B1
:103D88003046FEF775F9013D012208213046FEF75D
:103D98006FF9640015F0FF05E4B2E7D101220421B0
:103DA8000248FEF765F90022042101E000140140F1
:103DB800C648FEF75DF90825DB24C44E0022082119
:103DC8003046FEF755F923064CBF01220022102188
:103DD8003046FEF74DF9013D012208213046FEF735
:103DE80047F9640015F0FF05E4B2E7D10122042188
:103DF800B648FEF73DF900220421B448FEF738F929
:103E080008244025B14E304600220821FEF730F93B
:103E1800280613D5012210213046FEF729F9013C66
:103E2800012208213046FEF723F914F0FF0415D0CB
:103E3800002208213046FEF71BF900250022102138
:103E48003046FEF715F9013C012208213046FEF7FD
:103E58000FF96D0014F0FF04EDB2D4D10122042152
:103E68009A48FEF705F9002204219848FEF700F960
:103E780008252024954E002208213046FEF7F8F840
:103E880021064CBF0122002210213046FEF7F0F82F
:103E9800013D012208213046FEF7EAF8640015F0DA
:103EA800FF05E4B2E7D1012204218848FEF7E0F8D3
:103EB800002204218548FEF7DBF808250224834EFA
:103EC800002208213046FEF7D3F822064CBF012213
:103ED800002210213046FEF7CBF8013D01220821CF
:103EE8003046FEF7C5F8640015F0FF05E4B2E7D1E7
:103EF800012204217548FEF7BBF80022042173480B
:103F0800FEF7B6F808258D24704E002208213046A9
:103F1800FEF7AEF823064CBF0122002210213046DE
:103F2800FEF7A6F8013D012208213046FEF7A0F869
:103F3800640015F0FF05E4B2E7D1012204216348CB
:103F4800FEF796F8002204216048FEF791F808254C
:103F580014245E4E002230460821FEF789F8200618
:103F68004CBF0122002210213046FEF781F8013DA6
:103F7800012208213046FEF77BF8640015F0FF05A2
:103F8800E4B2E7D1012204215048FEF771F800227B
:103F980004214E48FEF76CF80825A4244B4E002255
:103FA80008213046FEF764F821064CBF01220022A2
:103FB80010213046FEF75CF8013D01220821304609
:103FC800FEF756F8640015F0FF05E4B2E7D10122C8
:103FD80004213E48FEF74CF8002204213B48FEF736
:103FE80047F80825A624394E002208213046FEF756
:103FF8003FF822064CBF0122002210213046FEF76E
:1040080037F8013D012208213046FEF731F86400F7
:1040180015F0FF05E4B2E7D1012204212B48FEF791
:1040280027F8002204212948FEF722F80825AF24A2
:10403800264E002208213046FEF71AF823064CBF08
:104048000122002210213046FEF712F8013D01221C
:1040580008213046FEF70CF8640015F0FF05E4B2BD
:10406800E7D1012204211948FEF702F800220421B1
:104078001648FDF7FDFF0825AF24144E00223046F0
:104088000821FDF7F5FF20064CBF01220022102170
:104098003046FDF7EDFF013D012208213046FDF7CE
:1040A800E7FF640015F0FF05E4B2E7D1012204211F
:1040B8000648FDF7DDFFFFF70BF90022042103484E
:1040C800FDF7D6FF0825B024004E01E0001401409A
:1040D800002208213046FDF7CBFF21064CBF012204
:1040E800002210213046FDF7C3FF013D01220821BF
:1040F8003046FDF7BDFF640015F0FF05E4B2E7D1D7
:10410800012204212748FDF7B3FF00220421254896
:10411800FDF7AEFF08251024224E00220821304664
:10412800FDF7A6FF22064CBF0122002210213046CF
:10413800FDF79EFF013D012208213046FDF798FF5B
:10414800640015F0FF05E4B2E7D101220421154807
:10415800FDF78EFF002204211248FDF789FF08258C
:104168000124104E002208213046FDF781FF230666
:104178004CBF0122002210213046FDF779FF013D96
:10418800012208213046FDF773FF640015F0FF0592
:10419800E4B2E7D1012204210248FDF769FF06B025
:1041A80070BD00BF00140140002310B50446C0E9EB
:1041B8000033C0E90433836081814366C28183612F
:1041C800194608225C3000F016F90D4BE4612362B1
:1041D8000C4B63620C4BA3620C4BE3620C4B9C428E
:1041E80006D003F16802944202D0D0339C4205D134
:1041F80004F15800BDE8104000F076B910BD00BFCA
:10420800794300089B430008D3430008F74300089C
:1042180078080020024A0349034800F069B800BF43
:104228000C000020DB5F00082000002041680C4BD8
:1042380010B59942044601D001F0CBFEA168094BA4
:10424800994202D0204601F0C4FEE168064B99422B
:1042580004D02046BDE8104001F0BBBE10BD00BF31
:1042680078080020E00800204809002010B50B4B12
:104278000B4C0C4A20461A6004210022FFF794FFD9
:1042880004F1680001220921FFF78EFF04F1D00034
:104298000222BDE810401221FFF786BFB0090020B6
:1042A800780800201D420008014800F01FB900BF2F
:1042B800BA090020014800F01AB900BFBA09002065
:1042C80010B50446FFF7F0FF636B1BB1BDE8104063
:1042D800FFF7F0BF044B6363044B1B68002BF5D159
:1042E800FFF7C4FFF2E700BF35420008B00900201D
:1042F8002DE9F8430746884614460026D4E9019577
:10430800B9F1010905D52468002CF7D13046BDE87C
:10431800F883AB89012B07D9B5F90E30013303D0E7
:1043280029463846C04706436835E9E70EB46FF0BA
:10433800004110B500249DB01FAB02900690079174
:1043480004910948094953F8042B0591006802A90A
:1043580001931B9400F038FC029B1C701DB0BDE853
:10436800104003B0704700BF180000200802FFFF8C
:1043780010B50C46B1F90E1000F068F80028ABBF74
:10438800236DA3891B1823F48053ACBF2365A38135
:1043980010BD2DE9F0411F468B890546DB050C460B
:1043A800164605D502230022B1F90E1000F03CF89C
:1043B800A389324623F48053A38128463B46B4F9A7
:1043C8000E10BDE8F04100F053B810B50C46B1F935
:1043D8000E1000F029F8431CA38915BF206523F4AB
:1043E800805343F48053A38118BFA38110BDB1F952
:1043F8000E1000F009B803460244934200D17047FA
:1044080003F8011BF9E7000038B50023054D044601
:1044180008462B60FDF7F2F8431C02D12B6803B164
:10442800236038BDB409002038B504460846114653
:104438000022054D2A601A46FDF7ECF8431C02D10C
:104448002B6803B1236038BDB409002038B5044691
:10445800084611460022054D2A601A46FDF7B2F8B3
:10446800431C02D12B6803B1236038BDB409002076
:1044780038B50446084611460022054D2A601A46FA
:10448800FDF7AEF8431C02D12B6803B1236038BD99
:10449800B4090020014B1868704700BF18000020BD
:1044A80070B500260C4D0D4C641BA410A64209D112
:1044B80004F0C8FA00260A4D0A4C641BA410A64250
:1044C80005D170BD55F8043B98470136EEE755F81D
:1044D800043B98470136F2E72C9400082C94000816
:1044E8002C94000834940008704770477047704750
:1044F800024B13B1024800F005B8704700000000F5
:1045080029620008002301461A46184601F0E8BE51
:104518002DE9F84306460820894601F095FE8046B5
:10452800234F304600F044FBBB685D6825F0030567
:10453800A5F11104A4EB09044444B4FBF8F4013CCC
:1045480008FB04F4A04505DD304600F037FB0020E9
:10455800BDE8F8830021304601F052FEBB682B44C9
:104568009842F1D13046614201F04AFE013010D143
:104578000021304601F044FEBA68831A0F2BE3DDB0
:104588000C4943F0010309685360401A0A4908605E
:10459800DAE7BB68084A2D1B45F001055D60136822
:1045A80030461B1B136000F009FB0120D0E700BF59
:1045B8006C01002064010020C0090020F8B5044601
:1045C8000F46002900F0B18000F0F2FA57F8042CE9
:1045D800564D22F00100A7F1080303EB000CA9686F
:1045E800DCF80460614526F0030602F001021BD1E5
:1045F80006443AB957F8082C9B1A1644D3E9021214
:10460800CA60916046F001025A60AB60484B1B6873
:10461800B34204D8474B20461968FFF779FF204674
:10462800BDE8F84000F0CABACCF80460002A38D1D6
:1046380057F8081C05F108075B1A08449968B9423D
:1046480031D0DF68CF60B9600CEB06014968C90753
:104658000BD4DCF8081030443ABB374EB14224D1B1
:104668000122C5E90433C3E9021140F00101596090
:104678001850002AD3D1B0F5007F1BD20121C208FF
:1046880040098140686801320143696055F8320089
:1046980005EBC2010839C3E9020145F83230C360AD
:1046A800BDE70022D0E70122CEE7DCF80C60CE603F
:1046B800B160DAE7B0F5206F4FEA502214D28209D0
:1046C8003832511C55F8311005EBC2068E4225D1FF
:1046D8000120921000FA02F2686802436A60C3E996
:1046E8000216B360CB609AE7142A01D85B32E8E778
:1046F800542A02D8020B6E32E3E7B2F5AA7F02D839
:10470800C20B7732DDE740F254518A4296BF820CE1
:104718007E227C32D5E789688E4204D04A6822F02E
:1047280003028242F7D8CE68D9E7F8BD6C010020B1
:1047380068010020F00900207401002001F10B033A
:10474800162B2DE9F74F054606D933F0070704D590
:104758000C232B600024A1E11027B942F8D8284681
:1047680000F026FAB7F5FC7FAE4E37D207F1080203
:1047780032445468A2F108018C424FEAD70302D1AF
:10478800D468A24210D0D4E902126368CA6023F048
:104798000303916023445A6842F001025A60284694
:1047A80000F00CFA083479E1023334699E498C42EE
:1047B80077D0626822F0030CACEB07000F2848DDC5
:1047C800E21940F0010347F001076760C6E90422D7
:1047D800C2E90211536044F80C00E0E77B0A2AD0D2
:1047E800042B12D8BB0938335A1C06EBC202546892
:1047F800A2F1080C644506D0626822F00302D01BBF
:104808000F281CDD013B0133CFE7142B01D85B33A4
:10481800EAE7542B02D83B0B6E33E5E7B3F5AA7FE2
:1048280002D8FB0B7733DFE740F25452934204D8A7
:10483800BB0C7C33D8E73F23D6E77E23D4E7002898
:10484800E16804DBA368D9608B60A318A3E70C4672
:10485800D0E70028C6E9041107DBA444DCF80430DB
:1048680043F00103CCF8043099E7BCF5007F706889
:1048780080F093804FEADC024FEA5C1E4FF0010C97
:104888000CFA0EFC4CEA0000013256F832C0706097
:1048980006EBC2000838C4E902C046F83240CCF83A
:1048A8000C400122981082407068904226D3104232
:1048B80006D123F003035200104203F10403FAD097
:1048C80006EBC308C1469E46D9F80C404C4540F05B
:1048D800B7800EF1010E1EF0030F09F10809F3D19C
:1048E800980740F0E180736823EA020373607068F8
:1048F8005200904202D3002A40F0E280D6F808A085
:10490800DAF8043023F00309B94504D3A9EB070208
:104918000F2A00F34081454B082019680AEB090B60
:1049280010313944019101F08FFC414A0199136813
:10493800804601331FBF01F1FF3109184342194076
:104948002846019101F05CFC421C044600F0F68008
:1049580083450199364A02D9B24540F0EF80354B7C
:10496800A345186808F1FF3C0844186040F0AA8085
:104978001BEA0C0F40F0A680B268494441F00101DF
:1049880051602D4A1B6811688B4288BF13602B4AFF
:1049980011688B4288BF1360D0E0BCF5206F4FEAE6
:1049A8005C2218D24FEA9C12383202F1010E56F8F6
:1049B8003EE006EBC208F0452BD14FF0010C9210F7
:1049C8000CFA02F202437260C4E902E8C8F808402F
:1049D800CEF80C4065E7142A01D85B32E5E7542A83
:1049E80003D84FEA1C326E32DFE7B2F5AA7F03D84C
:1049F8004FEADC327732D8E740F2545E724596BF10
:104A08004FEA9C427E227C32CFE7DEF808E0F04590
:104A180005D0DEF8042022F003026245F5D8DEF85E
:104A28000C80D1E76C01002074010020F0090020FF
:104A380064010020C0090020EC090020E8090020DA
:104A48006068D4F80CC020F00300A0EB070ABAF1A4
:104A58000F0F12DDA368E21947F001076760C3F87A
:104A68000CC0CCF808304AF00103C6E90422C2E9B8
:104A78000211536044F800A091E6BAF1000F11DB6F
:104A88002044436843F00103436054F8083F284634
:104A9800C3F80CC0CCF8083000F090F8204603B0FA
:104AA800BDE8F08F644611E758F80809013B404516
:104AB8003FF416AF1BE7043352001042FBD0FFE669
:104AC8007346FAE7D2F800E0BEF1FF3F1BBFA4EB44
:104AD8000B0B0BEB000214601A6014F0070B0EBFEF
:104AE8005846CBF108002418621802EA0C018044E9
:104AF800A8EB010808EA0C0841462846019201F093
:104B08007FFB431C019A294B07D1BBF1000F23D02F
:104B18004FF00008ABF1080010441A68001B40442D
:104B2800424440F00100B245B4601A6060603FF44E
:104B380028AFB9F10F0F12D801236360B3685B681F
:104B480023F00303BB42A3EB070201D30F2A22DCA5
:104B5800284600F033F8FDE51046D846DDE7052184
:104B6800DAF80420A9F10C0929F0070902F001027A
:104B780042EA0902CAF80420B9F10F0F0AEB090248
:104B8800C2E901117FF6FDAE28460AF10801FFF7D8
:104B980015FD064BF5E6B46847F0010342F0010243
:104BA80027446360B7607A60F9E500BFC009002058
:104BB8000148FFF79BBC00BFB80900200148FFF778
:104BC80096BC00BFB80900202DE9F04FD7B0934636
:104BD8001F460A91079001F00FFB036818461993C6
:104BE800FBF738FF0A9B12909B891A0614D50A9B7B
:104BF8001B698BB940210798FFF7A0FD0A9B186035
:104C0800186130B90C23079A13604FF0FF331493DF
:104C1800F1E140230A9A536100230022CDE92B33A6
:104C280008930023CDE9102300232DAC2A941E936A
:104C38001B930E9318931A9314935B461D4613F80F
:104C4800012B0AB1252AF9D1B5EB0B060DD02C9B07
:104C5800C4E900B633442C932B9B0133072B2B93C9
:104C680075DC0834149B334414932B78002B01F023
:104C7800478100226B1C4FF0FF3615468DF88B20BC
:104C8800139213F8012B0B920F930B9B203B5A2B7B
:104C980000F29F85DFE813F09E009D059D05A600A4
:104CA8009D059D059D0586009D059D05A900B300F0
:104CB8009D05B000B5009D05D000D300D300D300FA
:104CC800D300D300D300D300D300D3009D059D05A6
:104CD8009D059D059D059D059D0543019D050301B8
:104CE80015014301430143019D059D059D059D0552
:104CF800E6009D059D0596049D059D059D05E0041E
:104D08009D05FF049D059D0522059D059D059D05A5
:104D18009D059D059D059D059D0543019D05030177
:104D28001701430143014301E9001701FD009D05F7
:104D3800F6009D0577049804CE04FD009D05E00467
:104D48009C0001059D059D0565009D059C000A992F
:104D580007982AAA01F016F9002840F047812DACDF
:104D680080E7A84B1E9315F0200300F0BA8407379C
:104D780027F007031A4652F8087BD3F804800C92F0
:104D8800E8070AD557EA080307D030238DF88C3096
:104D98000B9B45F002058DF88D30022325F48065C4
:104DA80000F021BC079801F027FA436818461A93C7
:104DB800FBF750FE1890079801F01EFA83680E93CF
:104DC800189B2BB10E9B1BB11B780BB145F480656A
:104DD8000F9B56E79DF88B30002BF9D120238DF8D7
:104DE8008B30F5E745F00105F2E757F8043B002B57
:104DF8001393EDDA5B42139345F00405E8E72B23A0
:104E0800EDE70F9B13F8012B2A2A0B9211D157F8C3
:104E1800046B0F9346EAE676DAE701FB062613F8F9
:104E2800012B0B920B9A303A092AF6D946EAE67614
:104E38002AE700260A21F5E745F08005C8E70023A0
:104E48000A2213930B9B1399303B02FB01331393F4
:104E58000F9B13F8011B0F93A1F13003092B0B9142
:104E6800F0D912E745F00805B2E70F9B1B78682BCD
:104E780001BF0F9B45F4007501330F9318BF45F030
:104E88004005A5E70F9B1B786C2B05D10F9B0133C1
:104E98000F9345F020059BE745F0100598E73A4643
:104EA80052F8043B8DF8F43000230C928DF88B30C7
:104EB8009A460126994698461F460D930DF1F40B24
:104EC800B7E145F01005AB0613D5073727F0070300
:104ED8001A4652F8087BD3F804800C92B8F1000FF8
:104EE80005DA2D237F4268EB48088DF88B300123C3
:104EF8007CE33A4652F8043BEF060C9203D51F4672
:104F08004FEAE378EAE7680603D51FB243F3C038EF
:104F1800E4E7A905F3D55FB243F3C018DEE7073726
:104F280027F007031946F1E80223CDE91023109B67
:104F38000C911C93119B4FF0FF3223F000431D93FB
:104F4800DDE91C01304BFCF727F800BBDDE91C014B
:104F58004FF0FF322C4BFCF701F8C0B9DDE9100126
:104F680000220023FBF7F0FF10B12D238DF88B30C2
:104F7800264A274B0B994FF0000A4729CCBF934686
:104F88009B46032625F08005D14600F0F0BFDDE9F9
:104F9800102310461946FBF7FFFF824640B1119BCC
:104FA8001C4A002BBCBF2D238DF88B301A4BE1E730
:104FB8000B9B612B23D0412B30D158233022632EF9
:104FC8008DF88C208DF88D3045F0020540F38D80EA
:104FD8000798711CFFF7B2FB8346002840F08A80CF
:104FE8000A9B0A9A9B8943F0400393810A9B9B89F9
:104FF8005B063FF50AAE149857B0BDE8F08F7823EA
:10500800DCE700BFA4900008FFFFEF7F989000083E
:1050180094900008A09000089C900008721C6BD027
:105028000B9B23F02003472B01D1002E66D045F4BB
:1050380080731593119B002B63DA109B1693119BB9
:1050480003F1004317932D231F930B9B23F0200894
:10505800B8F1410F40F0D181DDE9160124AA01F031
:105068000DF900224FF07F53FBF7FCFC02460B467C
:10507800CDE9082300220023FBF75CFF08B10123D8
:105088002493244A244B0B995F46612908BF1A468A
:10509800013E0D920022DDE90801204BFBF7E2FCFE
:1050A80080468946CDE90889FBF78CFF8046FBF7E7
:1050B800BDFA02460B46DDE90801FBF769F90B4624
:1050C8000246CDE908230D9B13F8083007F8013B89
:1050D800731C25D00022002306F1FF38FBF72AFFB6
:1050E800A8B13B463020B9197EE14FF0000A0DF116
:1050F800F40B9CE782469AE7062698E7B246012613
:1051080095E7DDE91023CDE9162300239CE7464601
:10511800C0E700BFB5900008A49000080000304028
:105128000022AD4BFBF72EFF50B9DDE90801002244
:10513800A94BFBF7FFFE0028D3D018F0010FD0D001
:1051480030200D9B2897D97B289A531E289312F854
:10515800013C8B4200F03C81392B0BBF0D9B013386
:105168009B7ADBB202F8013CA7EB0B0308930B997F
:105178009DF82C20249821F02001412908BF0F32E6
:1051880000F1FF3306BFD2B201210021002B8DF8B8
:105198009820B4BF2D222B222493B8BFC0F101035D
:1051A800092B8DF8992040F397810A270DF1A70064
:1051B800B3FBF7F6024607FB1631303102F8011C43
:1051C80019466329334600F1FF30F1DC3033911E74
:1051D80000F8013C0B460DF199060DF1A70083423A
:1051E800C0F075810DF1A9039B1A814288BF002385
:1051F8000DF19A021A4426ABD31A1B93089B1B9AEB
:10520800012B03EB020601DCE80701D5129B1E44C3
:105218004FF00008474625F4806545F480731593E0
:10522800CDF834801F9B002B40F0A9814FF0000976
:10523800159DB1454B46B8BF334615939DF88B3045
:1052480013B1159B0133159315F002031F931EBF6D
:10525800159B0233159315F08403209321D1139BDA
:10526800159A9B1A002B1CDDDDE92B21DFF86CC198
:10527800102B02F1010204F10800C4F800C000F389
:10528800B4821944072ACDE92B21636040F3C48214
:105298000A9907982AAA00F075FE002840F00E86A1
:1052A8002DAC9DF88B202C9B6AB10DF18B022260EE
:1052B800012213442C932B9B62601344072B2B93DE
:1052C80000F3AC8208341F9A2C9B62B123AA226097
:1052D800022213442C932B9B62600133072B2B93E0
:1052E80000F3A6820834209B802B21D1139B159AAA
:1052F8009B1A002B1CDDDDE92B21DFF8E4C0102B05
:1053080002F1010204F10800C4F800C000F39A8217
:105318001944072ACDE92B21636040F3AA820A9930
:1053280007982AAA00F02EFE002840F0C7852DAC69
:10533800A9EB0609B9F1000F1CDDDDE92B2328488C
:10534800B9F1100F02F1010204F10801206000F325
:1053580092824B44072ACDE92B23C4F8049040F3EA
:105368009E820A9907982AAA00F00CFE002840F0AD
:10537800A5852DACEB05DDF8B09000F197822B9B4D
:10538800C4E900B601334E44072B2C962B9300F347
:10539800D28208346A0700F17385DDE91323159971
:1053A8008A42ACBF9B185B1814932C9B3BB10A999B
:1053B80007982AAA00F0E6FD002840F07F85002320
:1053C8002B93BAF1000F40F095850C9F2DACE3E0CC
:1053D80002F8010CB8E600BF0000E03FED910008BC
:1053E800DD91000803F8010BCA1A002AFADA731CC7
:1053F8000136B8BF00231F44B6E6B8F1460F05D002
:10540800B8F1450F31D1771C022301E03746032359
:1054180028AA049225AA039224AACDE9017200932E
:105428000798DDE9162301F023F8B8F1470F834602
:1054380030D1EA071BD4289BB8F1470FA3EB0B0325
:10544800249F08933BD0B8F1460F7FF490AE05F047
:105458000103002F43EA060358DD002B60D0129B9E
:10546800FB181E4466230B935FE03746CCE700EB3E
:1054780007090022DDE916010023FBF75BFD08B1EF
:10548800CDF8A0903022289B9945D4D9591C289151
:105498001A70F8E7B8F1460F00EB0709E9D103786D
:1054A800302B09D1DDE9160100220023FBF742FD6C
:1054B80010B9C7F101072497249B9944D9E7FB1C2D
:1054C80001DBBE4215DA0B9B023B0B934FE613F848
:1054D800017B06F8017F82E641B930228DF89A20D7
:1054E8000DF19B02303302F8013B84E60DF19A027C
:1054F800F8E7089BBB420DDD089B129A002F03EBCF
:1055080002060BDCC7F101031E4407E053B1129BEE
:105518000133A6E7E9071DD5129BFE186723A2E70A
:105528003E469FE7662301260B9315F480630D938F
:1055380022D04FF00008002FCDF834807FF772AEEC
:105548000E9B1B78FF2B07D10D9B189A434402FB37
:10555800036667E63E46E1E7BB42F5DAFF1A0E9BB3
:105568005B7833B10D9B01330D930E9B01330E9382
:10557800E6E708F10108E3E7DDF8348052E62D2379
:105588008DF88B3052E6AA060AD5149A3B6814990E
:10559800D217C3E900120437DDF83CB0FFF74DBB62
:1055A800EB0603D53B68149A1A60F4E76E0603D538
:1055B8003B68149A1A80EEE7AD05F3D53B68149A58
:1055C8001A70E8E745F0100515F020031FD00737DB
:1055D80027F007031A4652F8087BD3F804800C9288
:1055E800002325F4806500228DF88B20002EC0F260
:1055F800928425F080020D9257EA080240F09084C8
:10560800002E00F0DE80012B40F08D8483E03A46C6
:1056180052F8047B15F010080C9201D09846DFE789
:1056280015F0400301D0BFB2DAE715F40078D7D0FF
:10563800FFB2F3E73B4653F8047B78220C9347F616
:105648003003ADF88C30974B4FF000081E9345F0AF
:10565800020502230B92C6E73B46002753F804BB1A
:10566800BE420C938DF88B700FDB32463946584694
:1056780000F0F6FD824600283FF486ACBA46B946EB
:10568800B846A0EB0B060D97D3E55846FBF7E2F9B1
:10569800BA46064678E445F0100515F020030AD00E
:1056A800073727F007031A4652F8087BD3F8048017
:1056B8000C92012397E73A4652F8047B15F010083C
:1056C8000C9201D09846F4E715F0400301D0BFB220
:1056D800EFE715F40078ECD0FFB2F3E7724BFFF771
:1056E80041BB3A4652F8047B15F010080C9202D0E0
:1056F8009846FFF745BB15F0400302D0BFB2FFF74D
:105708003FBB15F400783FF43BABFFB2F0E70A2F3C
:1057180078F1000307D23037FFB28DF857710DF2D8
:10572800571B00F01DBC002308930D9B56AD03F4D6
:10573800806315930A22002338464146FBF76AFC2A
:10574800089B303201330893159B8246894605F140
:10575800FF3B05F8012C03B30E9B1A78089B934274
:105768001BD1FF2B19D00A2F78F10008C0F0F8835D
:10577800189B1A99ABEB030B1A46584600F029FD03
:105788000E9B5A783AB101330E930023089357467B
:10579800C8465D46CEE70892F9E70A2F78F1000877
:1057A800F5D2DDE31E9A07F00F03D35C3F0947EA01
:1057B80008774FEA18180BF8013D57EA0803F1D1AA
:1057C800CEE31BB9EA0701D53027A6E70DF5AC7B78
:1057D800C6E30B9B002B00F093838DF8F430002375
:1057E8000C978DF88B30FFF763BB4FF0100C072A2E
:1057F8006144CDE92B21C4F804C00ADD0A99079851
:105808002AAA219300F0BEFB002840F05783219B71
:105818002DA80446103B27E5044642E50A99079857
:105828002AAA00F0AFFB002840F048832DAC4AE5D7
:105838000A9907982AAA00F0A5FB002840F03E83A1
:105848002DAC50E54FF0100C072A6144CDE92B210F
:10585800C4F804C00ADD0A9907982AAA1F9300F021
:1058680091FB002840F02A831F9B2DA80446103B7B
:1058780041E504465CE51020072A0344CDE92B23C3
:10588800606008DD0A9907982AAA00F07BFB0028C7
:1058980040F014832DA90C46A9F110094DE50C46DA
:1058A80068E500BFA4900008B59000080B9B652B25
:1058B80040F34882DDE9100100220023FBF73AFBA0
:1058C800002869D0724B2360012363604B442C93FA
:1058D8002B9B0133072B2B9337DC0834249B089A26
:1058E800934202DBEF077FF555AD199B129A2360AF
:1058F800129B63602C9B13442C932B9B0133072B27
:105908002B932CDC0834089B5E1E002E7FF742ADDB
:105918004FF010085F4F102EDDE92B3204F108011B
:1059280003F10103276024DC6660072B1644CDE9E8
:105938002B3640F3A2820A9907982AAA00F022FB84
:10594800002840F0BB822DAC24E50A9907982AAAC2
:1059580000F018FB002840F0B1822DACBEE70A9990
:1059680007982AAA00F00EFB002840F0A7822DAC69
:10597800C9E71032072BCDE92B32C4F8048008DDC3
:105988000A9907982AAA00F0FDFA002840F09682A2
:105998002DA90C46103EBEE7249B002B7CDC3C4B1B
:1059A8002360012363604B442C932B9B0133072B0B
:1059B8002B9346DC08340899249B2C9A0B4305F05A
:1059C80001010B433FF4E6AC199B2360129B1A4478
:1059D80063602B9B2C920133072B2B933BDC04F148
:1059E8000803249E002E1BDA1A461024294F7642FB
:1059F800102EDDE92B1003F1080301F101011760F6
:105A080033DC566007290644CDE92B1608DD0A99D0
:105A180007982AAA00F0B6FA002840F04F822DAB6A
:105A2800089A08995A602C9AC3F800B00A442C9234
:105A38002B9A0132072A2B923FF77DAF03F1080416
:105A4800A8E40A9907982AAA00F09CFA002840F0CE
:105A580035822DACAFE70A9907982AAA00F092FA86
:105A6800002840F02B822DABBBE710300729CDE989
:105A78002B10546008DD0A9907982AAA00F082FAC8
:105A8800002840F01B822DAB1A46103EB0E700BF3D
:105A9800C6900008DD910008089BBB42A8BF3B46A2
:105AA800002B1E460ADDC4E900B34B442C932B9B04
:105AB8000133072B2B9300F38E800834002EB4BFDC
:105AC8003E46BE1B002E1CDDDFF87492102EDDE969
